:020000040800F2
:10000000180C00203502000817450008B93B00080D
:10001000154500082D1D00086D4C0008000000006B
:100020000000000000000000000000001B45000868
:100030004F1E00080000000019450008EB460008AC
:100040004F0200084F0200084F0200084F0200084C
:100050004F0200084F0200084F0200084F0200083C
:100060004F0200084F0200084F0200084F0200082C
:100070004F0200084F0200084F0200084F0200081C
:100080004F020008191E00084F0200084F02000826
:100090004F0200084F0200084F0200084F020008FC
:1000A0004F0200084F0200084F0200084F020008EC
:1000B0004F020008514700084F0200084F02000895
:1000C0004F0200084F0200084F0200084F020008CC
:1000D0004F0200084F020008614C00084F02000860
:1000E0004F0200084F0200084F02000800F002F81B
:1000F00000F090F80AA090E8000C82448344AAF132
:100100000107DA4501D100F085F8AFF2090EBAE82F
:100110000F0013F0010F18BFFB1A43F0010318473B
:10012000A0720000C0720000103A24BF78C878C1E5
:10013000FAD8520724BF30C830C144BF04680C60ED
:10014000704700000023002400250026103A28BF35
:1001500078C1FBD8520728BF30C148BF0B60704739
:100160006E2900F08F81702900F0D982662906F08F
:10017000F287652906F0EF87672906F0EC87612989
:1001800006F0EB8703681B0A28BF41F0800169294C
:1001900000F03C81642900F03981752900F0368136
:1001A0006F2900F06682782900F0A582E92900F025
:1001B0000182E42900F0FE81F52900F0FB81EF299E
:1001C00000F06382F82900F0A4820368DB0928BFED
:1001D00041F08001632900F0C987732900F0CE87C0
:1001E000E32900F0D987F32900F0DE87002070476B
:1001F0001FB501F04DF804000020002106F0E2F8E0
:10020000401C60600020002106F0C6F8E0601FBDC1
:1002100010B510BD01F00EF81146FFF7E9FF05F02B
:1002200063FB01F0EBF803B4FFF7F2FF03BC01F04E
:100230002FF900000948804709480047FEE7FEE71C
:10024000FEE7FEE7FEE7FEE7FEE7FEE7FEE7FEE786
:1002500004480549054A064B704700004D47000811
:10026000ED00000818060020180C002018080020D7
:10027000180800207CB51D4616460C00009001D0E1
:100280002044401E074B7B442A4669460190304675
:1002900000F011F905461CB10020694600F01EF976
:1002A00028467CBD5D020000014A00F007BB00004B
:1002B0002001002010B5431C02E010F8011B71B1B1
:1002C0008107FAD14FF0013202C88C1A8C4314EA2C
:1002D000C211F9D0C01A0A0603D0C01E10BDC01A40
:1002E00010BD0A0401D0801E10BD0902FCD0401EC2
:1002F00010BD4FF0000200B51346944696462039D3
:1003000022BFA0E80C50A0E80C50B1F12001BFF4CE
:10031000F7AF090728BFA0E80C5048BF0CC05DF834
:1003200004EB890028BF40F8042B08BF704748BF82
:1003300020F8022B11F0804F18BF00F8012B7047F6
:1003400070477047704770B5044685690068C106FC
:1003500001D5302600E02026C00707D070BDD4E9C3
:10036000012130469047206A401C20626D1EF6D560
:1003700070BD70B5044685690078C00707D170BDAF
:10038000D4E9012120209047206A401C20626D1E84
:10039000F6D570BD09684A0501D540B27047C90558
:1003A000FCD500B2704709684A0501D5C0B2704754
:1003B000C905FCD580B2704770B50C460546012AC8
:1003C00005D02878800600D5EA69002302E00123E1
:1003D00005E05B1C934202D2E05C0028F9D1A869D9
:1003E000E618C01AA861286A184428622846FFF750
:1003F000AAFF04E0D5E9012114F8010B9047B442AB
:10040000F8D32846FFF7B5FF70BD00002DE9F04195
:100410000646002410687529314616A510D0FFF74E
:10042000B9FF002802DA404213A507E031688A07C5
:1004300001D512A502E0490704D511A5012401E068
:10044000FFF7B1FF00210A2206F1240709E0B0FB03
:10045000F2FCB0FBF2F302FB1C003030785418467B
:10046000491C0028F3D123462A463046BDE8F04116
:1004700000F08BBA000000002D0000002B000000EF
:100480002000000011680268006A530501D5087059
:100490000AE0D30501D5088006E0130603D5C2178C
:1004A000C1E9000200E008600120704701694A1CB0
:1004B00002610878704700B58FB0CDE901310021A5
:1004C000059105497944CDE903101146684600F0CD
:1004D00031F90FB000BD0000E5FFFFFF0A6802F828
:1004E000010B0A607047D1E900239A4202D2531CE3
:1004F0000B601070704700002DE9FF5F15468A46BB
:100500000446DFF8AC80F8440027D8E900103E46E6
:10051000CDE9001010E03AF816106A4602A800F083
:1005200047FE411C07D02178890603D5E2693918B6
:1005300091420DD80744761C2078800602D5E069E8
:10054000B84205DDAE42E6DB3AF816000028E2D1FB
:10055000A069C01BA0612046FFF7F5FED8E9001096
:10056000CDE90010002017E03AF818106A4602A8FA
:1005700000F01EFEB0F1FF3F81460BD000250DF1CB
:10058000080B05E0D4E901211BF8050090476D1C1C
:100590004D45F7D308F10100B0428046E4DB206A04
:1005A000384420622046FFF7E4FEBDE8FF9F0000CC
:1005B000BA6D00002DE9F0418046D21D22F00702FD
:1005C0000025D2E90002F52915A614D0011E72F10A
:1005D000000106DA0023D0EB030063EB020211A650
:1005E00008E0D8F800108B0701D50FA602E04907F4
:1005F00001D50EA601251146002408F1240704E0C8
:1006000000F07EF930323A55641C50EA0102F7D10D
:100610002B46324621464046BDE8F04100F0B5B9D0
:10062000000000002D0000002B0000002000000052
:1006300030B4002100F1240408E002F00705D208DC
:10064000303542EA4372DB086554491C52EA03051F
:10065000F3D10468002310A2250707D5A40600D40F
:1006600021B1C46901230DA2641EC46130BC00F035
:100670008CB910B5044621461068FFF794FE024677
:100680002046BDE810400023D2E7D21D22F007012A
:10069000D1E90023CCE7000000000000300000009A
:1006A000F0B40D460188090502D5214C7C4402E0D6
:1006B0001F4C7C440E34002100F1240608E002F0B7
:1006C0000F071209E75D42EA03721B097754491CC0
:1006D00052EA0307F3D102780023120704D5702DE4
:1006E00006D009B1022311342246F0BC00F04DB906
:1006F00001231034F8E770B504460D462146106812
:10070000FFF751FE024629462046BDE8704000230F
:10071000C6E7D21D22F00703D3E90023C0E7036830
:10072000126843F0200303600823C3610023B7E786
:100730001C6C00002DE9F05F894604464FF0000A6A
:10074000DFF874B1FB44C0F820A02046E168884778
:10075000002874D0252806D0D4E901219047206ACA
:10076000401C2062F1E700265F462046E16888478A
:100770002028054607DB312D05D2781910F8200C0A
:1007800008B10643F1E7B00701D526F00406C4F826
:100790001CA00027C4F818A02A2D09D0284604F070
:1007A0008AFA38B304EB8708303DC8F8185019E0CE
:1007B00059F8041B204604EB87029161E1688847E1
:1007C000012F054618D1E069002820DA26F020061E
:1007D0001DE0D8F8180000EB800005EB4000303831
:1007E000C8F818002046E1688847054604F063FA17
:1007F0000028EED1012F0AD02E2D08D12046E16825
:1008000088477F1C0546022F46F02006C4DBA069FE
:10081000002803DA404246F00106A061F00701D04B
:1008200026F010066C2D0BD0682D09D04C2D39D038
:100830006A2D35D0742D35D07A2D33D016E038E0BE
:10084000E1682F4620468847B842054609D16C2FFB
:1008500026D04FF48060E16806432046884705466D
:1008600004E06C2F1AD04FF4807006430DB3A5F14D
:100870004100192802D8203546F400664A46294628
:10088000204626604E46FFF76BFC80B101280BD056
:10089000F61D26F0070000F1080956E74020E4E7BE
:1008A0008020D8E70020D6E706F104094DE7284666
:1008B00052E7206ABDE8F09FAC6B00002DE9F041E3
:1008C00015460E46040002D12C6804B90BA420463C
:1008D00000F09EFC0444207870B12746314638462B
:1008E00000F086FC0444207810B1002004F8010BCD
:1008F00038462C60BDE8F0810027F9E700000000D1
:1009000030B5B0F10A024FEA900E71F100034EEAE1
:10091000817EB0EB0E0061EB91014FEA101E4EEAB2
:10092000017E10EB0E0041EB11114FEA102E4EEA42
:10093000016E10EB0E0041EB11214FEA104E4EEA12
:10094000014E10EB0E0041EB1141401841F1000146
:100950004FEAD00040EA41704FEAD10110EB800528
:100960004FEA810444EA907444EB01046D1944EBAE
:100970000404521BA3414FF0000348BF0A3200D5C4
:1009800030BD401C41F1000130BD2DE9F0470D465E
:1009900099469246044600F124080168880604D569
:1009A000E06921F01001216000E00120A84201DD92
:1009B000471B00E00027A1697A1902EB0900081A19
:1009C000A0612078C00602D42046FFF7BCFC0026B8
:1009D00008E0D4E901211AF806009047206A401C7B
:1009E000761C20624E45F4DB2078C0060AD52046EE
:1009F000FFF7A9FC06E0D4E9012130209047206AE6
:100A0000401C2062381EA7F10107F4DC07E0D4E99E
:100A1000012118F805009047206A401C2062281E1A
:100A2000A5F10105F3DC2046FFF7A3FC20780006C2
:100A300002D50220BDE8F0870120FBE770472DE9D1
:100A4000FF4F0C461E464FF0FF378BB0D2E9000136
:100A5000DDF860800A908A46C1F30A5505B93D4623
:100A6000002108464FF00000BAF1000F00F44000EA
:100A700005DA00EB80004FF4400101EA50004FEA34
:100A80009059B9F1010F00DDB9460A9850EA4A00C1
:100A90000ED044F61050A5F2FF3545432F14B8F19F
:100AA000000F1ED07542291E1EDDC9F100021CE098
:100AB000B8F1010F4FF0000001D0302103E0F24304
:100AC00005E02154401CB042FBDB304600220021EF
:100AD00021540B99C1F80880C1E900200FB0BDE88E
:100AE000F08FBD1B6D1CDEE74A4600DA694206A89E
:100AF00000F012FC06AB93E8070003AB83E80700A5
:100B000050460A9900F0CBFC8DE80700A0F5005094
:100B10001F3800900398002D0ADD42F21F014A465B
:100B20000844002303A90390684600F034FF09E05D
:100B3000A0F500504A461F38002303A903906846D9
:100B400000F03EFF8DE807000004000C03D04FF0DA
:100B5000FF30410800E01046B8F1000F03D000223A
:100B6000009215461EE0751E05D4FFF7C9FE30320F
:100B700062556D1EF9D5B3460122084302D000220A
:100B80007F1C04E02078302801D100227F1E002A3B
:100B9000099784D01DE0112D07DAFFF7B1FE30323E
:100BA00062556D1C50EA0102F5D1084302D000984D
:100BB000C8B10EE00021681E05E0235C625C63544E
:100BC0002254401E491C8142F7DBAB46A81B401E45
:100BD0000990002004F80B000B98099AC0F80880CF
:100BE000C0E9002B7AE711264FF0000857E72DE9FE
:100BF000F04F88460446D21D22F0070191B0D1E99A
:100C00000001CDE90A0104F032F802460B98C00F4A
:100C100001D02D2007E02068810701D52B2002E0BC
:100C2000202101EAC000032A099001D0072A05DB30
:100C300003464146204600F02FFB0BE1207880065A
:100C400001D5E06900E00620B8F1650F814606D0C5
:100C5000B8F1660F18D0B8F1670F70D131E00020FD
:100C6000B9F1110F009001DB112301E009F101033B
:100C70000AAA01A90CA8FFF7E2FEDDE90C70002624
:100C800009F10105834647E001204B4600904FF0F3
:100C900000470AAA01A90CA8FFF7D1FEDDE90DB0B3
:100CA0000C995D46002610B909F101000D18B9EB49
:100CB000050003D4C0F1FF3609F10105A5EB0900D9
:100CC0002BE0B9F1010F01DA4FF001090020B9F171
:100CD000110F0090484601DD112300E003460AAAE7
:100CE00001A90CA8FFF7ABFEDDE90C704D4600260C
:100CF0008346207800070AD4AB4500DA5D4601A898
:100D0000012D04DD411911F8011C302907D04F4590
:100D100002DA17F1040F04DA012082460FE06D1E9B
:100D2000EEE7002F02DCED1B3E4403E0781CA842F6
:100D300000DD7D1CB81B00F1010A4FF00047207850
:100D4000000703D4AA4501DB4FF0FF3A0021B7F1B9
:100D5000004F0DF143088DF8431024D002202B23BF
:100D6000002F01DA7F422D230A21021EA0F101008B
:100D700000DC5FB197FBF1FC97FBF1F201FB1C7CFF
:100D800017460CF1300C08F801CDEEE7A8F1010090
:100D900003702188090501D5452100E06521A0F1F6
:100DA000010800F8011C09980FA9A1EB0807FF1D15
:100DB00000B10120411901EBEA70A1693844081A19
:100DC000401EA0612078C00602D42046FFF7BBFA7F
:100DD000099828B1D4E901219047206A401C20627B
:100DE0002078C00622D52046FFF7ADFA1EE0002E7F
:100DF00004DBB34502DD01A8805D00E03020D4E9CA
:100E000001219047206A401C2062761CAAF1010053
:100E10005FEA000A0AD100F03BFAC0680168405C52
:100E2000D4E901219047206A401C2062281EA5F1C8
:100E30000105DCDC07E0D4E9012118F8010B90473B
:100E4000206A401C2062381EA7F10107F3DC20460F
:100E5000FFF78FFA032011B041E600002DE9F04FB3
:100E600004460D46D21D22F0070089B0D0E9009754
:100E70004846394603F0FBFE0246F80F01D02D2309
:100E800007E02068810701D52B2302E0202101EA39
:100E9000C0038DF820300BB1012000E00020032AB0
:100EA000824601D0072A04DB2946204600F0F4F9E7
:100EB0003FE12078800601D40D2500E0E569C7F305
:100EC0000A560D2D49DA00214FEA175B08464FF00C
:100ED0000000002F00F4400007DA00EB80004FF420
:100EE000400100EBD07001EA60008115012901DDAD
:100EF0004FF0FF3100224FEA850CBCF1180F06D3EA
:100F00001346ACF118004FF08052C24003E04FF49A
:100F1000801323FA0CF30CF10C0CBCF1200F04D35A
:100F2000ACF1200C09FA0CF001E007FA0CF00029F2
:100F30004FF0004801DD18B90FE00ED140450CD349
:100F400019EB02095F4121B9404502D19F4329EACB
:100F50000209BBEB175F00D0761C2088000502D584
:100F60007B48784402E07A487844193808AA30234C
:100F700002F80A30037C0AF10101002E0AF1020A8C
:100F800053546A4602DC4FF0300101E04FF031016A
:100F90004FF001088DF8001002D0A6F2FF3603E0F2
:100FA00059EA470100D06B4E002D02DC2178090779
:100FB00004D54FF002082E218DF80110C4460021FF
:100FC0000BE0C7F303433F01C35C491C6D1E02F8ED
:100FD0000830052908F1010801DA002DF1DC0021B3
:100FE0000CE000EB1973491C1B786D1E082902F8F0
:100FF00008304FEA091908F1010801DA002DF0DC88
:1010000021688B0602D516E0A8F10108E04505DD50
:1010100002EB080313F8013C302BF5D0B8F1000FB8
:1010200009DD02EB080313F8013C2E2B03D109075D
:1010300001D4A8F10108002D05DD3E2102F80810B9
:101040006D1E08F10108407C002E02F8080008F12E
:10105000010804DA2D20764202F8080002E02B2075
:1010600002F808000A214FF47A70864208F101085C
:101070000BDB96FBF0F3303302F8083096FBF0F30D
:1010800008F1010800FB136601E0642E0CDB64200C
:1010900096FBF0F3303302F8083096FBF0F308F1DA
:1010A000010800FB136601E00A2E06DB96FBF1F057
:1010B000303002F8080008F1010896FBF1F001FB5E
:1010C0001060303002F80800A16908F1010808EB4F
:1010D000050202EB0A00081AA0612078C00602D4BB
:1010E0002046FFF730F9216A08AE01EB0A002062C2
:1010F00004E0D4E9012116F8010B9047BAF1010A86
:10110000F7D22078C00602D52046FFF71CF96E46BC
:1011100009E016F8010B3E280FD0D4E901219047D1
:10112000206A401C2062B8F10108F2D22046FFF785
:1011300020F909B00320BDE8F08F206A284420621E
:1011400003E0D4E90121302090476D1EEBD3F8E78E
:10115000B263000002FCFFFF10B5436913B1AFF3A7
:10116000008001E0FFF728F9012010BD127800F19E
:1011700024010A7000224A700122EDE711684FF045
:10118000FF32E9E710B5436913B1AFF3008001E026
:10119000FFF7B2F9012010BD128800F1240182840A
:1011A0000022C2840122EDE711684FF0FF32E9E727
:1011B00070B516460C46054600F062F8036893F8D1
:1011C0000101012806D0FF2C0FD8185D68B101205D
:1011D0002C7070BDD3F807013246214603F2071385
:1011E00003442846BDE8704018474FF0FF3070BDFB
:1011F00030B503461D781DB10A4603E0AC4201D16B
:10120000181A30BD12F8014B002CF7D15B1CF1E726
:1012100030B503461D783DB10A4612F8014B1CB1AA
:10122000AC42FAD15B1CF5E7181A30BD0048704794
:10123000B40500207546FFF7F9FFAE460500694684
:10124000534620F00700854618B020B5FFF700F898
:10125000BDE820404FF000064FF000074FF00008B7
:101260004FF0000B21F00701AC46ACE8C009ACE838
:10127000C009ACE8C009ACE8C0098D467047000061
:1012800010B500F005F8001D10BD00BF3951000079
:1012900000487047D40500202DE9F0411F46044660
:1012A00003260168072A01F4006004DB08B116A5D3
:1012B00005E016A503E008B115A500E015A521F08D
:1012C00010002060A069C01EA0610FB1401EA06187
:1012D0002046FFF738F84FB1D4E90121384690474E
:1012E000206A401C2062C01C206206E0206AFAE7E7
:1012F000D4E9012115F8010B9047761EF8D220465B
:10130000FFF737F8BDE8F0814E414E006E616E0088
:10131000494E4600696E66002DE9F0478146164643
:101320008AB0354878440DC88DE80D0032487844BD
:10133000801C03AC0DC884E80D0041F69B300844C6
:10134000372190FBF1F290FBF1F5A5F1800501FB4F
:1013500012041B3C02D56442012000E00020DFF8AB
:1013600098A080460027FA44AAF1BE0A0EE0E007E2
:101370000AD03246684607EB470101230AEB810198
:1013800000F01EFB8DE8070064107F1C002CEED1DE
:10139000194F7F44AE3F19E0E80715D007EB041062
:1013A0000DF1180A90E80E008AE80E00C068F042BD
:1013B00001D1981908903246012306A903A800F02C
:1013C000FFFA03AB83E807006D10641C002DE3D126
:1013D0004FF0010332466946B8F1000F03A802D06E
:1013E00000F0D9FA01E000F0EBFAC9E90001C9F810
:1013F00008200AB0BDE8F0878060000010B5044600
:10140000AFF300802046BDE81040FEF70CBF00009F
:101410004FF0013C50F8042B51F8043B9A4221D183
:10142000A2EB0C03934313EACC1317D150F8042B0F
:1014300051F8043B9A4215D1A2EB0C03934313EAF3
:10144000CC130BD150F8042B51F8043B9A4209D12C
:10145000A2EB0C03934313EACC13DBD04FF0000054
:10146000704700BFD01A01BAB1FA81F101F018013A
:1014700022FA01F0CB40C1F12001DBB2C0B2C01AA8
:101480002CFA01F3D11A914311EAC311E6D1704746
:1014900001491820ABBEFEE72600020070475FEA54
:1014A000400C08BF91F0000F4FEA8C234FEAC12295
:1014B00043EA51514FEA1C5018BF00F5F0404FEA83
:1014C000300018BF41F000415FEA6C5C00F02980F9
:1014D000BCF1FF3F08BF40F080407047130C06BFCF
:1014E00012044FF0100C4FF0000C130E04BF120248
:1014F0000CF1080C130F04BF12010CF1040C930F34
:1015000004BF92000CF1020CD30F04BF52000CF187
:10151000010C11464FF00002A0F11F00A0EB0C00DF
:10152000704711F0004F08BF704731F000413FF4A1
:10153000D5AF0B0C06BF09044FF0100C4FF0000C98
:101540000B0E04BF09020CF1080C0B0F04BF0901BC
:101550000CF1040C8B0F04BF89000CF1020CCB0FB3
:1015600004BF49000CF1010CCCF12003A0EB0C00EE
:1015700022FA03F302FA0CF241EA030100F101003E
:10158000704720F07F4C80EA030023F07F47ACEBEC
:10159000070303F57C5300F0004003F1FF032DE93E
:1015A00080494FEA154B09B44FEA144325EA0B4E24
:1015B00024EA03480FF2042606EB132749083E7875
:1015C0005FEA320203FB0667C7F5000707FB06F672
:1015D0004FEA54374FEAD64606F1020607FB066C7F
:1015E000CCF1005C4FEA1C472CEA074C07FB06F4E1
:1015F0000CFB06F504EB15464FEA961634BF0020A7
:101600004FF000404FEAD13706FB07FC4FEA1C4C75
:101610000CFB0BF7D21B03FB0CF761EB07010CFB78
:101620000EF7B0EB074072EB17420CFB08F734BF24
:10163000A2EB0742B2EB074261EB17414FEA0C44C1
:101640004FEA910706FB07FC4FEA1C4C0CFB0BF71B
:10165000B0EBC74072EB573203FB0CF734BFA2EB81
:10166000C742B2EBC74261EB57310CFB0EF7B0EB50
:10167000C70072EB57720CFB08F734BFA2EBC7022E
:10168000B2EBC70261EB5771039F4FEA816141EAF8
:10169000921104EBCC044FEAD1374FEA826206FB89
:1016A00007FC42EA90124FEA80604FEA1C4C0CFBA8
:1016B0000BF7D21B03FB0CF761EB07010CFB0EF7DA
:1016C000B0EB074072EB17420CFB08F734BFA2EBFC
:1016D0000742B2EB074261EB17414FEA8C554FEAE4
:1016E000910704EB9C2406FB07FC4FEA1C4C0CFB07
:1016F0000BF7B0EBC74072EB573203FB0CF734BF6C
:10170000A2EBC742B2EBC74261EB57310CFB0EF7BD
:10171000B0EBC70072EB57720CFB08F734BFA2EBBB
:10172000C702B2EBC70261EB577115EB4C254FEACC
:10173000816141EA92114FEA82624FEAD13742EA6F
:10174000901206FB07FC44F100044FEA80604FEA68
:101750001C4C0CFB0BF7D21B03FB0CF761EB0701D6
:101760000CFB0EF7B0EB074072EB17420CFB08F7CF
:1017700034BFA2EB0742B2EB074261EB174115EB16
:101780001C154FEA813141EA92414FEA823242EA26
:1017900090424FEA80304FEA0C7644F1000448EA68
:1017A00003434EEA0B484FF0000EB2EB080C71EB0E
:1017B000030724BF624639464EEB0E0E4FF0000B76
:1017C0000018524149414BEB0B0BB2EB080C71EB8B
:1017D00003077BF1000B24BF624639464EEB0E0E29
:1017E0004FF0000B0018524149414BEB0B0BB2EB91
:1017F000080C71EB03077BF1000B24BF62463946EE
:101800004EEB0E0E51EA020718BF46F0010616EB2A
:101810000E7655F1000254F1000103D5BDE88901AF
:10182000BDE80088BDE88901BDE80048B61952410D
:1018300041EB0101A3F10103704780807F7E7D7C35
:101840007B7A7978777676757473727171706F6E52
:101850006E6D6C6C6B6A6A696868676666656464FD
:10186000636362616160605F5F5E5E5D5D5C5C5B87
:101870005B5A5A59595858575756565555555454F6
:10188000535352525251515050504F4F4F4E4E4D54
:101890004D4D4C4C4C4B4B4B4A4A4A4949494848A0
:1018A00048474747474646464545454444444443E0
:1018B00043434342424242414141002B9C4630D483
:1018C00077002BD01CB54FEA370703B44FF0100058
:1018D0004FF01001BAF1000F06D0BCF1000FDCBFD1
:1018E00040F0080040F008014FF000000FBCBDE8D8
:1018F00010400BF1010BBBF1010F08BF5FEA1707A6
:1019000022BF12F1010211F101014FF0004143F138
:10191000000300F0004043EA00007047F9D3570885
:10192000D0E746EA064613F1400F4FEA16461FDDA0
:1019300013F1200FDFBF16430A46002120335B421C
:10194000BED0C3F1200746EA064602FA07F74FEA7F
:10195000164646EA0706C3F1200722FA03F201FA07
:1019600007F721FA03F14FF0000342EA0702A7E765
:1019700046EA020646EA06464FEA164646EA0106E7
:10198000BCBF46EA0646360C4FF000034FF000029B
:101990004FF0000194E72DE9804C9A46934670B4CD
:1019A00091E8380007C831EA400C48BF34EA430CDC
:1019B00003D5FFF7E6FDFFF780FFF0BCBDE8008C24
:1019C0002DE9804C9A46934670B491E8380007C8D8
:1019D00010F0804F08BF13F0804F03D100F005F8DE
:1019E000FFF76BFFF0BCBDE8008C20F07F4780EA7A
:1019F000030023F07F4C07EB0C03A3F57C5300F0AE
:101A00000040A3F1FE0392F0000F00F0B38095F0C8
:101A1000000F00F077802DE901494FEA11404FEAAD
:101A2000144621EA004800FB06FC24EA064708FBAE
:101A300006F607FB08F800FB07F718EB06484CEB27
:101A4000164C4FEA124B18EB07484FEA15464CEB81
:101A5000174022EA0B4E0BFB06FC25EA06470EFB5D
:101A600006F607FB0EFE0BFB07F71EEB064E4CEBD4
:101A7000164C4FF000061EEB074E4CEB174B18EBC5
:101A80000B0840F1000018EB0E0B58EB000840F17A
:101A900000008F1A4FF000013CBFC943661B14BF02
:101AA000B5EB040C00213CBFC943F61B4FEA1744B9
:101AB0004EEA8E0E27EA04454FEA1C4704FB0762F4
:101AC0002CEA074C05FB07F70CFB05F604FB0CFCA6
:101AD00016EB074642EB174216EB0C4642EB1C4254
:101AE0001BEB060658EB0202414146EA9E0601D571
:101AF000BDE80189B619524141EB0101A3F101038F
:101B0000BDE801894FEA14454FEA114724EA05462A
:101B100021EA074C05FB07F406FB07F70CFB06F16F
:101B200005FB0CFC11EB074144EB17444FEA12474D
:101B300011EB0C4144EB1C4422EA074C05FB07F275
:101B400006FB07F70CFB06F605FB0CFC16EB07463D
:101B500042EB174216EB0C4642EB1C456A1854F157
:101B6000000148BF7047B619524141EB0101A3F192
:101B70000103704795F0000F37D04FEA11424FEA4A
:101B8000144721EA024624EA074C02FB07F106FB50
:101B900007F70CFB06F402FB0CFC14EB074441EBCB
:101BA00017414FEA154714EB0C4441EB1C4125EA61
:101BB000074C02FB07F506FB07F70CFB06F602FBDA
:101BC0000CFC16EB074645EB174516EB0C4645EBB0
:101BD0001C42121951F1000148BF7047B619524119
:101BE00041EB0101A3F1010370474FEA14454FEAAD
:101BF000114724EA054621EA074C05FB07F106FBDD
:101C000007F70CFB06F24FF0000605FB0CFC12EB8D
:101C1000074241EB174112EB0C4251EB1C4148BF0C
:101C20007047921841EB0101A3F1010370470000D6
:101C300070B50446856800F055F808B1104870BDCD
:101C40002946A06805F012FA0E4C0F4DA04202DDA5
:101C5000294605F00BFA0D49884202D9294604F0BD
:101C600083FF0B4904F0F4FF0A4905F033F92146DC
:101C700004F0EEFF084905F02DF920F0004070BD9A
:101C8000000080BF000034430000B443000034C3B0
:101C90000AD7233DDB0F4940EC51383D7CB5044663
:101CA000084621601146A2800022A2600BA20225F4
:101CB00012680192072201ABC9B2009503F000FB44
:101CC000074D40B1204600F00DF8002802D0022058
:101CD000287001207CBD0120FAE700000704000005
:101CE0001C0100201CB50446022000900C2201AB10
:101CF0002179206803F08DF998B19DF804109DF8C2
:101D0000050001F00F0140EA012005F0CFF8064977
:101D100005F0E0F86FF00B0105F081FAA0600020FB
:101D20001CBD01201CBD00000000B443FEE7000004
:101D300070B504460068417E006A012911D0FFF7A2
:101D400077FF0D4D294604F083FFA0606068417E57
:101D5000006A59B1FFF76CFF294604F079FFE06093
:101D600070BDFFF765FF80F00040EAE7FFF760FF16
:101D700080F00040F0E700008FC2A54070B5044637
:101D80004069417A71B9057A9C2D09D11DE0294637
:101D9000606902F0FFFB022000F0DCF96D1CEDB27F
:101DA0009C2DF4D96069417A01290ED1057A522D12
:101DB00009D10AE02946606902F0ECFB022000F03C
:101DC000C9F96D1EEDB2522DF4D2A069417A71B9F4
:101DD000057A1E2D09D170BD2946A06902F0DAFBF3
:101DE000022000F0B7F96D1EEDB21E2DF4D2A069ED
:101DF000417A0129EFD1057A692D09D170BD2946B3
:101E0000A06902F0C7FB012000F0A4F96D1CEDB23F
:101E1000692DF4D970BD0000014800F08BB80000B6
:101E2000FC04002030B590F840500124AC40C56B54
:101E30006C60046863604368102B036803D099608A
:101E40000068C26030BD9A600068C16030BD7047F4
:101E500072B6FEE710B590F821100022022905D0D5
:101E60000421816380F82020012010BD01680B68E7
:101E700023F00E030B6001680B6823F001030B6075
:101E800090F84030C46B012101FA03F3636080F8DD
:101E9000211080F82020104610BD000010B590F8E9
:101EA00021100024022903D00421816301243DE094
:101EB00001680A6822F00E020A6001680A6822F0CE
:101EC00001020A601A4A0168914201D1012121E010
:101ED000174A1432914201D110211BE0144A2832D2
:101EE000914201D1891515E0114A3C32914201D14C
:101EF00089140FE00E4A5032914202D14FF48031E2
:101F000008E00B4A6432914202D14FF4801101E0A3
:101F10004FF08071064A083A5160012180F8211083
:101F2000002180F82010416B01B18847204610BD88
:101F3000080002402DE9F05FC16B0C6801680B6876
:101F4000D0F840C0042202FA0CF2494DDFF824A177
:101F5000494E4A4FDFF828B1DFF828E122422CD061
:101F60005A072AD50A68920603D40A6822F00402A6
:101F70000A600168A94201D1042219E0514501D14A
:101F8000402215E0B14202D14FF4806210E0B94224
:101F900002D14FF480420BE0594502D14FF4802228
:101FA00006E0714502D14FF4800201E04FF08062FB
:101FB0002F4908394A60C16A3BE04FF0020808FA2D
:101FC0000CF818EA040F4FF000094FF0010235D069
:101FD0005FEA837832D50B689B0605D40B6823F043
:101FE0000A030B6080F821200168A94201D1022276
:101FF00019E0514501D1202215E0B14202D14FF440
:10200000007210E0B94202D14FF400520BE0594582
:1020100002D14FF4003206E0714502D14FF40012B4
:1020200001E04FF00072124908394A6080F82090B0
:10203000816A00291AD0BDE8F05F0847082505FA33
:102040000CF5254212D01B0710D50B6823F00E03A8
:102050000B6090F84010C36B02FA01F15960826383
:1020600080F8212080F82090016BE2E7BDE8F09F26
:10207000080002401C0002403000024044000240C0
:10208000580002406C00024030B528B308C813491C
:1020900014221944B1FBF2F18900C1631049816334
:1020A000022141771A6843F6F0718A43D0E900149F
:1020B0002143D0E902452C4321430469214344696B
:1020C00021438469214311431960002141630122A6
:1020D00042770177084630BD012030BDF8FFFDBFD3
:1020E0000000024070B5044690F820000025012849
:1020F0000CD0012084F8200094F821600020012EEB
:1021000006D084F820000225284670BD022070BD4C
:10211000022684F82160A0632068066826F0010684
:1021200006602046FFF77EFEE06A0028206801680E
:1021300002D041F00E0106E021F0040101602068A8
:10214000016841F00A0101602068016841F0010165
:102150000160D9E770B5044600F008F90546601C37
:1021600002D004480078044400F000F9401BA0426B
:10217000FAD370BD040000202DE9F84FDFF8B891C4
:102180000024A9F1040B23460F2709F1040AABF13F
:10219000040EC9E00125A5402A40AA427DD1674E20
:1021A000D1F804C0ACEB0608B44532D014DCBCF165
:1021B000030F3AD009DCBCF1000F2AD0BCF1010FAB
:1021C0001CD0BCF1020F31D11DE0BCF1110F17D0B2
:1021D000BCF1120F2AD119E0B8F5881F19D006DC1E
:1021E000B8F5803F15D0B8F5801F1FD111E0B8F5C4
:1021F000001F0ED0B8F5041F18D10AE0CB6815E017
:10220000CB681B1D12E0CB6808330FE0CB680C33A2
:102210000CE08B682BB1012B4FF0080303D0456114
:1022200004E0042302E0056100E00023FF2A01D856
:10223000064601E000F104064FEA840501D9A5F144
:102240002005D6F8008007FA05FC28EA0C0803FAF6
:1022500005F548EA0508C6F800804D68ED0062D52E
:10226000374DAE6946F00106AE61AD6924F0030654
:1022700005F001050095334D06EB050CDCF8085020
:10228000A607360F07FA06F825EA0805DFF8B88032
:10229000404503D14FF0000817E044E0DFF8AC8080
:1022A000404502D14FF001080FE0DFF8A48040451F
:1022B00002D14FF0020808E0DFF89880404502D1D3
:1022C0004FF0030801E04FF0040808FA06F848EA66
:1022D0000508CCF808804D68D9F80060ED024D463D
:1022E00001D5164300E096432E604D68DAF8006091
:1022F000AD02554601D5164300E096432E604D6869
:10230000DBF80060AD035D4601D5164300E096435F
:102310002E604D68DEF80060ED03754601D516436A
:1023200000E096432E60641C0D682A46E5407FF469
:1023300031AFBDE8F88F0000080401400000111023
:10234000001002400000014000080140000C014064
:1023500000100140001401408068084000D00120B6
:1023600070470AB1016170470904FBE701488068C2
:10237000704700000400002070B5040025D094F8D8
:102380003D00002520B984F83C50204600F07EFA3C
:10239000242084F83D002068016821F001010160DB
:1023A0002068016841F4004101602068016821F45F
:1023B0000041016000F0D0FB4D4A6168914201D8B4
:1023C0004C4900E04C49884201D2012070BD4B4984
:1023D0002368B0FBF1F15E6826F03F060E435E60B5
:1023E0006368934206D94FF4967359434FF47A7356
:1023F000B1FBF3F12368491C1E6A26F03F06314306
:1024000019626168914210D84900401EB0FBF1F298
:10241000521CC2F30B02042A01D2042022E0B0FBBA
:10242000F1F0401CC0F30B001CE0A268F2B301EB1A
:10243000C10303EB0116431EB3FBF6F35B1C43F42D
:1024400080431B0549D092B301EBC10202EB01119D
:10245000401EB0FBF1F0401CC0F30B0040F4804084
:1024600040F400402168CA694CF6FF739A43104358
:10247000C861D4E9071001432068026822F0C00255
:1024800011430160D4E9030101432068826848F2E6
:10249000FF339A4311438160D4E905010843216861
:1024A000CA6822F0FF021043C86001E00EE016E0A7
:1024B0002068016841F0010101602564202084F852
:1024C0003D00256384F83E50002070BD01EB4106BD
:1024D000431EB3FBF6F35B1CB3E70120C2E701EB3D
:1024E0004101401EB0FBF1F0401CC0F30B00B7E708
:1024F000A086010080841E0000093D0040420F00BC
:102500002DE9FF4F83B00025DDE910799A46934607
:102510000446DDF848800095FFF728FF064694F84A
:102520003D0020287CD119230122884920460096AD
:1025300001F058FC0028F5D194F83C0001286FD038
:10254000012084F83C0020680168C90703D10168B4
:1025500041F0010101602068016821F4006101601F
:10256000222084F83D00402084F83E002564676204
:10257000A4F82A90608D20857548E062CDE9008638
:1025800053465A462046049901F02EFB00287CD180
:10259000208DDFF8C091202768B1012814D00228CF
:1025A000206801681ED041F48061016020684169A3
:1025B00080690090BCE020684169816900910168F0
:1025C00041F400710160B3E02068016821F480618A
:1025D000016072B62068416981690091016841F427
:1025E00000710AE041F40061016072B6206841693F
:1025F00081690091016821F48061016062B697E011
:10260000032865D801280CD0022843464FF0000269
:102610004946204600960BD001F0E4FBA8BB0CE035
:1026200091E032464146204601F082FC68BB72E0F0
:1026300001F0D8FB48BB72B633E02068016821F492
:102640008061016072B620680069616A0870606A22
:10265000401C6062208D401E2085608D401E60857C
:102660003D4846F2A8110068B0FBF1F0C0EBC00095
:1026700000EB80000090401E009007D02068406969
:10268000C04340070DD50098F5E727E044F8305FD8
:102690006773A573206940F02000206162B625733E
:1026A0001CE02068016841F4007101602068006945
:1026B000616A0870606A401C6062218D491E218534
:1026C000618D491E618562B621680969017026E045
:1026D00032464146204601F02BFC18B1012007B0DC
:1026E000BDE8F08F20680069616A0870606A401C6C
:1026F0006062208D401E81B22185608D401E608504
:1027000020684269D243520712D4032903D10168D9
:1027100021F48061016020680069616A0870606A64
:10272000401C6062208D401E2085608D401E6085AB
:10273000208D00287FF464AF84F83D7084F83E500B
:1027400084F83C50CBE70220C9E7000002001000EB
:102750000000FFFF04000100100000202DE9FF4FE2
:1027600083B09A46DDE9119793460446DDF8408030
:10277000FFF7FCFD054694F83D0020287FD1192382
:10278000012240492046009501F02CFB002876D11B
:1027900094F83C00012872D0012084F83C002068A5
:1027A0000168C90703D1016841F001010160206897
:1027B000016821F400610160212084F83D0040207F
:1027C00084F83E0000262664C4F82480A4F82A90E9
:1027D000608D20852C48E062CDE9007553465A464D
:1027E0002046049901F07EFA70B930E02A46394655
:1027F000204601F0D5FB58B1206C042804D1206894
:10280000016841F400710160012007B0BDE8F08F5C
:10281000606A216800780861606A401C6062218DEE
:10282000491E89B22185628D521E628522685369D4
:10283000DB435B070BD469B100781061606A401C10
:102840006062208D401E2085608D401E6085208D39
:102850000028CBD12A463946204601F097FA0028B5
:10286000CAD154F83D0B016841F400710160202089
:1028700004F81E09E67766770020C6E7FFE7022026
:10288000C3E70000020010000000FFFF10B586B093
:10289000002100910191029103910068134988423F
:1028A00022D1134CA06940F00800A061A0696946DC
:1028B00000F0080004904FF4407000901220019046
:1028C000032003900B48FFF757FC0B48416841F089
:1028D000E06141F002014160E06940F40010E06114
:1028E000E06900F40010049006B010BD00540040F0
:1028F00000100240000C01400000014002488168C5
:10290000027811448160704704000020074810B528
:10291000016841F010010160032000F075F80F20FC
:1029200000F006F800F024F8002010BD002002405E
:1029300070B50D4D04464FF47A712878B1FBF0F074
:102940000A490968B1FBF0F000F0DCFA48B9102C34
:1029500007D200222146501E00F036F800206C609D
:1029600070BD012070BD0000040000201000002098
:102970000C4808B5816941F001018161816901F06C
:1029800001010091C16941F08051C161C06900F04D
:10299000805000900448416821F0E06141F00071EE
:1029A000416008BD0010024000000140002809DB22
:1029B00000F01F02012191404009800000F1E02059
:1029C000C0F8001170470000F0B40E4B1B680C46B5
:1029D000C3F30223C3F10705042D00D90425191DF3
:1029E000072901D2002300E0DB1E012606FA05F1CB
:1029F000491E214099409E40761E16403143F0BC4E
:102A000002F049B90CED00E0064900F00702086841
:102A10004FF6FF03184040EA0220034A10430860C3
:102A2000704700000CED00E00000FA052DE9F047CA
:102A30000F46050061D0434E306800F00700B842F1
:102A400009D2306820F0070038433060306800F069
:102A50000700B84251D128683B4C810712D5400786
:102A600003D5606840F4E06060602878000703D513
:102A7000606840F4605060606068A96820F0F00011
:102A8000084360602878C00728D06868012810D003
:102A90002168022810D0890700292EDA616821F008
:102AA000030101436160FFF761FC804641F2883910
:102AB0000DE021688903EFE78901EDE7FFF756FC98
:102AC000A0EB0801494502D90320BDE8F087606802
:102AD000696800F00C00B0EB810FEFD1306800F0B6
:102AE0000700B8420BD9306820F007003843306047
:102AF000306800F00700B84201D00120E5E72878EF
:102B0000400705D56068E96820F4E060084360602C
:102B10002878000706D56068296920F4605040EAEB
:102B2000C100606000F038F86168084AC1F3031121
:102B3000515CC8400649086006480068FFF7F8FE87
:102B40000020C2E70020024000100240AC720008E2
:102B5000100000200800002004480549006849686A
:102B6000044AC1F30221515CC840704710000020A4
:102B700000100240BC72000804480549006849681A
:102B8000044AC1F3C221515CC840704710000020C4
:102B900000100240BC7200080E4A51680E4801F055
:102BA0000C03042B11D0082B0FD10C48C1F3834325
:102BB000C903C05C0AD55168084AC1F34041921E5E
:102BC000515C054A5043B0FBF1F07047044948435B
:102BD000704700000010024000127A009C7200084A
:102BE00000093D002DE9F84F040070D02078C04D59
:102BF000C00749D06868C0F38100012807D0686821
:102C0000C0F38100022809D16868C00306D528688E
:102C1000800339D560680028E7D035E06068B0F5FA
:102C2000803F0BD010B1B0F5A02F11D0286820F450
:102C300080302860286820F4802002E0286840F472
:102C400080302860606890B1FFF790FB06460AE08C
:102C5000286840F480202860F0E700BFFFF786FB7B
:102C6000801B642873D828688003F7D50CE0FFF731
:102C70007DFB064605E000BFFFF778FB801B64285C
:102C8000F0D828688003F7D420789A4E80074FF058
:102C900001094FF0000839D5686810F00C0F07D013
:102CA0006868C0F38100022809D16868C00306D4AF
:102CB0002868800714D52069012808D110E0206910
:102CC000B0B1C6F80090FFF751FB074605E00AE1F6
:102CD000FFF74CFBC01B0228C4D828688007F7D533
:102CE0002868616920F0F80040EAC10028600DE022
:102CF000C6F80080FFF73AFB074604E0FFF736FB13
:102D0000C01B022823D828688007F7D42078000742
:102D10002CD57948A169D9B1C0F80090FFF726FBFE
:102D2000074604E0FFF722FBC01B02280FD8686AA1
:102D30008007F7D571484FF4FA510068B0FBF1F005
:102D4000009000BF0098411E0091FAD20EE080E092
:102D5000C0F80080FFF70AFB074604E0FFF706FB18
:102D6000C01B022875D8686A8007F7D4207840070E
:102D700060D5E8690027C00008D4E86940F08050B9
:102D8000E861E869012700F0805000905C48016824
:102D9000C90513D40168834641F480710160FFF7CF
:102DA000E5FA824606E000BFFFF7E0FAA0EB0A0072
:102DB00064284ED8DBF80000C005F5D5E06801288E
:102DC0000AD008B1052813D0286A20F00100286233
:102DD000286A20F0040002E0286A40F0010028621E
:102DE000E06841F2883B98B1FFF7C0FA82460BE0F9
:102DF000286A40F004002862EEE700BFFFF7B6FA49
:102E0000A0EB0A0159455AD8286A8007F6D50CE08C
:102E1000FFF7ACFA824605E0FFF7A8FAA0EB0A013B
:102E200059454CD8286A8007F6D41FB1E86920F0CC
:102E30008050E861E06988B36968C1F381010229C3
:102E400044D00228C6F8608004D0FFF78FFA044609
:102E500038E034E0FFF78AFA074604E0FFF786FA25
:102E6000C01B02282BD828688001F7D4206AB0F54F
:102E7000803F05D16868A16820F40030084368608D
:102E8000D4E908010843696821F4741108436860B3
:102E9000C6F86090FFF76AFA044606E025E000BF36
:102EA000FFF764FA001B022809D828688001F7D5CB
:102EB0001BE000BFFFF75AFA001B022802D90320CB
:102EC000BDE8F88F28688001F4D40EE00128F7D01F
:102ED0006868226A00F48031914204D1616A00F48A
:102EE0007010884201D00120EAE70020E8E70000E6
:102EF00000100240000042428004424210000020C4
:102F00000070004010B5401EB0F1807F01D3012059
:102F100010BD4FF0E02460610F21601701F0BBFE8F
:102F20000020A06107202061002010BD704770477D
:102F300010B590F83C20012A22D0012280F83C20D4
:102F4000CA688C6822F4407222434C6822F4806282
:102F500022430C6822F4006222430C6922F480525E
:102F600022434C6922F400522243C969002322F40F
:102F700080420A4301684A6480F83C30002010BD5A
:102F8000022010BD70B590F83C20012A26D0012403
:102F900080F83C40022280F83D2003685A689D6812
:102FA00022F070060A6832435A600D4B02689A425A
:102FB00008D0B2F1804F05D00A4B9A4202D00A4B9A
:102FC0009A4204D1496825F080031943916080F842
:102FD0003D40002180F83C10084670BD022070BDC5
:102FE000002C0140000400400008004010B504001F
:102FF00003D094F83D0010B107E0012010BD00207F
:1030000084F83C00204600F01FF8022084F83D00C0
:10301000211D206801F0A2FB012084F8460084F8FD
:103020003E0084F83F0084F8400084F8410084F8B2
:10303000420084F8430084F8440084F8450084F892
:103040003D00002010BD000008B500680B49884213
:1030500012D10B48C16941F00201C161C06900226F
:1030600000F00200009002211D20FFF7ADFCBDE83A
:1030700008401D20FFF79ABC08BD00000004004076
:103080000010024090F83D10012901D00120704746
:10309000022180F83D100168CA6842F00102CA604E
:1030A00000680B49884208D0B0F1804F05D009492B
:1030B000884202D00849884204D1816801F00701A2
:1030C000062903D0016841F001010160002070472A
:1030D000002C0140000400400008004070B5044688
:1030E00090F83C000025012817D0012684F83C60A8
:1030F000022084F83D002068826822F0770222F4E2
:103100007F4282600868502838D00DDC20284FD0DC
:1031100005DC90B3102811D14AE0022070BD3028A0
:1031200046D040280AD13BE060282FD070280DD02F
:10313000B0F5805F03D0B0F5005F12D0012584F8B0
:103140003D60002084F83C00284670BDCB68D1E982
:103150000121206801F04BFB2068816841F0770174
:1031600009E0CB68D1E90121206801F040FB20682B
:10317000816841F480418160E1E719E0CA684968EB
:10318000206801F0E9FB5021206806E0CA68496820
:10319000206801F0F2FB6021206801F032FBCEE7ED
:1031A000CA684968206801F0D7FB40212068F4E72D
:1031B000226801461046F0E770472DE9F0410446C9
:1031C0000068C66805694FF00007A90713D5B10765
:1031D00011D5F91E016101202077206880698007E0
:1031E000204602D0FFF7E8FF04E000F0D9F82046BF
:1031F00000F096F92777680716D5700714D521686F
:103200006FF004000861022020772068806910F4C4
:10321000407F204602D0FFF7CFFF04E000F0C0F867
:10322000204600F07DF92777280715D5300713D5FC
:1032300021686FF008000861042020772068C069C9
:103240008007204602D0FFF7B7FF04E000F0A8F89F
:10325000204600F065F92777E80616D5F00614D564
:1032600021686FF010000861082020772068C0698D
:1032700010F4407F204602D0FFF79EFF04E000F0EC
:103280008FF8204600F04CF92777E80708D0F007C0
:1032900006D021686FF001000861204600F0C8F9EF
:1032A000280608D5300606D521686FF08000086131
:1032B0002046FFF73BFE680608D5700606D5216854
:1032C0006FF040000861204600F04AFAA8060AD5CF
:1032D000B00608D521686FF0200008612046BDE8DF
:1032E000F041FFF724BEBDE8F081000010B586B0C4
:1032F00000210091019102910391234C0368234A1C
:1033000002212348A3420DD1936943F00403936142
:103310009269039102F004020492C214CDE90021E3
:10332000694613E0B3F1804F14D01A4883420FD19D
:10333000906940F0080090619069039100F00800E6
:103340000490C020CDE9000169461348FEF714FF40
:1033500006B010BD936943F0040393619269039131
:1033600002F0040204924FF40042CDE900216946C4
:10337000FEF702FF0948416821F4407141F0E06125
:1033800041F480714160E3E7002C014000100240ED
:103390000008014000080040000C0140000001400E
:1033A000704770B5044690F83C0000260D46012891
:1033B0000FD0012084F83C006AB1042A1DD0082AED
:1033C0002FD00C2A3FD00126002084F83C00304644
:1033D00070BD022070BD206801F01CFA2068816970
:1033E00041F0080181612068816921F00401816157
:1033F000206881692A69114311E0206801F032FADE
:103400002068816941F4006181612068816921F44B
:1034100080618161206881692A6941EA02218161B4
:10342000D2E7206801F04AFA2068C16941F008013A
:10343000C1612068C16921F00401C1612068C169CE
:103440002A69114311E0206801F064FA2068C1691B
:1034500041F40061C1612068C16921F48061C161EA
:103460002068C1692A6941EA0221C161ACE710B54F
:10347000040003D094F83D0010B107E0012010BD16
:10348000002084F83C00204600F01EF8022084F85A
:103490003D00211D206801F061F9012084F84600FB
:1034A00084F83E0084F83F0084F8400084F841002E
:1034B00084F8420084F8430084F8440084F845000E
:1034C00084F83D00002010BD08B5124A016812487A
:1034D000914207D1816941F400618161806900F402
:1034E000006014E0B1F1804F0AD00C4A91420FD134
:1034F000C16941F00401C161C06900F0040006E047
:10350000C16941F00101C161C06900F00100009092
:1035100008BD0000002C01400010024000080040DF
:103520007047000010B50446022249B104290ED0AC
:10353000082913D094F84100012816D0012010BDAD
:1035400094F83E000128F9D184F83E200FE094F869
:103550003F000128F2D184F83F2008E094F84000B1
:103560000128EBD184F8402001E084F841200122B9
:10357000206801F02FF90F492068884203D1426C7E
:1035800042F4004242642068884208D0B0F1804F83
:1035900005D00949884202D00849884204D181688F
:1035A00001F00701062903D0016841F00101016023
:1035B000002010BD002C0140000400400008004025
:1035C00030B504460D460068002201F003F9174BA0
:1035D00041F2111120688A10984209D1036A0B4206
:1035E00006D1036A134203D1436C23F400434364BE
:1035F0002068036A0B4206D1016A114203D10168B7
:1036000021F00101016001203DB1042D08D0082DF9
:1036100009D084F84100002030BD84F83E00FAE76C
:1036200084F83F00F7E784F84000F4E7002C0140FD
:103630002DE9F04F2F49006897B00968884256D1AC
:103640002D4800F045FD28B12C490A2088702CA097
:1036500002F0E4FC2748D830FEF76AFB26483438ED
:10366000406903F055FA824623488B46503840693A
:1036700003F04EFA8046204889466C38406903F0D2
:1036800047FA06461C480F468838406903F040FA5E
:10369000044618480D46D830C06803F039FACDE921
:1036A00000011448D830806803F032FA0B460EA9A6
:1036B000024681E8F00F1048D0E91014CDE90C144F
:1036C000D0E90E14CDE90A14D0E90C14CDE90814A0
:1036D000D0E90814CDE90614D0E90614CDE90414A4
:1036E000D0E90410CDE902100DA002F097FC17B04C
:1036F000BDE8F08F0C02002018040020000000201C
:1037000047657420646174612066726F6D204D504E
:103710005536303530206572726F72210A00000014
:10372000252E336620252E336620252E3366202550
:103730002E336620252E336620252E336620252E37
:10374000336620252E336620252E336620252E3322
:103750006620252E336620252E33660A00000000E1
:103760007047704770470000F8B501680446086864
:10377000CA684B6910F00F0F4FF0000559D003F0E5
:10378000010602F49077374365D0C10705D0D10513
:1037900003D5616C41F001016164410705D5D9078A
:1037A00003D0616C41F002016164810705D5D9073E
:1037B00003D0616C41F004016164010707D502F098
:1037C0002001314303D0616C41F008016164616CF8
:1037D00000293AD0800604D5900602D5204601F093
:1037E00066F920684069616CC0F38010090700D455
:1037F00060B3204601F026F920684069400621D5D3
:103800002068143050E8001F21F0400140E8001209
:10381000002AF5D1E06BA8B16D494163E06BFEF77A
:103820003DFB002811D0E06B416B01B0BDE8F040DA
:10383000084783060FD593060DD52046BDE8F8400E
:1038400001F035B92046FFF78DFFF8BD2046FFF7A0
:1038500089FF6564F8BD266B2023012E7CD1C60646
:103860007AD5D60678D508684868009048694FF040
:103870000206400640D5E16B086840680004000C71
:10388000E8D0A28D8242E5D9E085886920282DD034
:1038900020680C3050E8001F21F4807140E80012CD
:1038A000002AF5D12068143050E8001F21F00101F2
:1038B00040E80012002AF5D12068143050E8001FBB
:1038C00021F0400140E80012002AF5D184F842308E
:1038D000256320680C3050E8001F21F0100140E8FB
:1038E0000012002AF5D1E06BFEF7B4FA6663A08DF2
:1038F000E18D401A81B22AE0A08DE18D401A81B29B
:10390000E08D0028A6D00029A4D022680C3252E80D
:10391000000F20F4907042E80007002FF5D12068D6
:10392000143050E8002F22F0010240E80027002F59
:10393000F5D184F84230256320680C3050E8002F20
:1039400022F0100240E80023002BF5D166632046E8
:10395000FFF707FFF8BDFFE705062BD5150629D5AC
:1039600094F841002128F5D1A068B0F5805F01D11D
:103970002069B0B1206A411C21622168007848604A
:10398000E08C401E0004000CE084E3D12068C16894
:1039900021F08001C1602068C16841F04001C16030
:1039A000D8E7206A0088C0F308004860206A801CBD
:1039B0002062E5E74006CDD55006CBD5CA68204643
:1039C00022F04002CA6084F8413000F0F3F8C1E709
:1039D0009F49000870B5040004D094F84100002508
:1039E00010B106E0012070BD84F84050204600F080
:1039F00023F8242084F841002068C16821F4005194
:103A0000C160204601F0B4F82068016921F49041BA
:103A100001612068416921F02A0141612068C16883
:103A200041F40051C1606564202084F8410084F8AD
:103A300042006563002070BD70B586B00025064663
:103A400000950195029503950068224988423FD16F
:103A50002149C86940F40030C861C86900F40030E9
:103A60000490886940F00400886188691B4C00F06C
:103A70000400049004200090022001900320039091
:103A800069462046FEF778FB0820CDE90005694627
:103A900020460295FEF770FB124C11482060102062
:103AA000C4E901058020C4E903056561A5612046DC
:103AB000E561FEF7E9FA08B1FEF7CAF9B46300223E
:103AC000012126206662FEF77FFF2620FEF76EFFAB
:103AD00006B070BD004400400010024000080140E4
:103AE00080000240FC04002090F84230202B01D0DE
:103AF0000220704721B11AB10023036301F094B88A
:103B00000120704710B50B490446006809688842D7
:103B10000FD10948407802F029FB0648483002F0EE
:103B200093FA054920460122BDE81040491CFFF7E1
:103B3000DBBF10BD9C0200200000002070B50446D1
:103B400090F84100202801D0022070BD49B342B353
:103B50002162A284E28400206064212384F8413041
:103B6000A56B114BAB62A56B104BEB62A56B104BB9
:103B70002B63A36B5863256813462A1DA06BFEF7C1
:103B8000B1FA21686FF0400008602068143050E8F6
:103B9000001F41F0800140E80012002AF5D100200A
:103BA00070BD012070BD0000F94900083B4A0008C3
:103BB000AF49000870477047FEE701684A69D24381
:103BC00052050FD46FF480624A61002140F8301F23
:103BD000202242738173026942F004020261017380
:103BE00001207047002070472DE9F84F0446006817
:103BF00089460B9D01689846174641F48061016033
:103C00002068016841F48071016000954FF0011B4C
:103C10000022594620460A9B00F0E4F84FF4007A4F
:103C200040B120680068C00501D5C4F840A0032059
:103C3000BDE8F88F216809F0FE0008612B4628498D
:103C400020460A9A00F016F9F0BB206841698069A5
:103C500000902A4620460A9900F0A2F940B1206C53
:103C600004283AD12068016841F40071016034E011
:103C7000FEB2B8F1010F09D02168380A08612A465E
:103C800020460A9900F08CF90028E8D120680661E6
:103C90002A4620460A9900F083F90028DFD12068DF
:103CA000016841F480710160009500225946204668
:103CB0000A9B00F097F80028B3D1216809F0FF00B3
:103CC00040F00100086100E007E02B46044920466F
:103CD0000A9A00F0CFF80028AAD00120A8E7000037
:103CE000020001002DE9F843044600680D46DDE9B5
:103CF000089701689846164641F4807101604B466A
:103D000000224FF001112046009700F06BF848B1F7
:103D100020680068C00502D54FF4007020640320BD
:103D2000BDE8F883216805F0FE0008613B464A467D
:103D30001549204600F09EF888B9206841698069DD
:103D400000903A464946204600F02AF948B1206CD6
:103D5000042804D12068016841F400710160012049
:103D6000DEE7F5B2B8F1010F09D02168300A086129
:103D70003A464946204600F013F90028E7D120686A
:103D800005610020CCE700000200010070B5164676
:103D90000D4604461EE02046FFF70FFF08B1012044
:103DA00070BD681C16D0FEF7E1FA801BA84200D84F
:103DB00085B920684069C04340070BD5002044F80E
:103DC000300F20216173A073216941F0200121612E
:103DD0002073E4E720684069C0434007DBD400203B
:103DE00070BD00002DE9F047984617460D46044681
:103DF000C1F30746DDF820902AE000BFB8F1FF3F8D
:103E000026D0FEF7B3FAA0EB0901414502D8B8F17C
:103E1000000F1DD12068012E16D0806925EA000010
:103E20000004000C12D00020B84211D1002044F848
:103E3000300F20216173A073216941F020012161BD
:103E400020730120BDE8F0874069E7E70120EBE738
:103E50002068012E0AD0806925EA00000004000CC9
:103E600006D00020B842C9D00020EBE74069F3E754
:103E70000120F7E72DE9F047984616460D4604461F
:103E80004FF000094FF0200AC1F3074723E02068F4
:103E90004069C043400515D42068016841F40071B1
:103EA000016021686FF480604861C4F8309084F844
:103EB0003DA084F83E90216C41F00401216484F817
:103EC0003C9021E0701C06D0FEF750FAA0EB0800F1
:103ED000B04203D816B1012F1FD021E02068012F76
:103EE00015D0806925EA00000004000C18D000BF3E
:103EF00044F8309F84F80DA084F80E90216941F0B9
:103F00002001216184F80C900120BDE8F087406910
:103F100025EA00000004000CEAD12068406901E0B5
:103F20002068806925EA00000004000CAFD1ECE7AE
:103F30002DE9F041002590460E460446202728E052
:103F40004069C043C0060CD454F8301B6FF0100019
:103F5000486144F810596777A577206A2062257771
:103F600014E0FEF703FAA0EB0800B04200D886B9CF
:103F700020684069C04340060BD544F8305F677342
:103F8000A573206940F02000206125730120BDE861
:103F9000F08120684169C9434906D1D40020F6E781
:103FA00070B516460D4604461EE02046FFF705FE96
:103FB00008B1012070BD681C16D0FEF7D7F9801B30
:103FC000A84200D885B920684069C04300060BD5D7
:103FD000002044F8300F20216173A073216941F063
:103FE000200121612073E4E720684069C043000696
:103FF000DBD4002070BD2DE9F041054688460068FD
:1040000002F086FD4FF0FF36324603F0DAF807463D
:104010000C46404602F07CFD324603F0D2F83A46A8
:10402000234602F017FA02F0E3F92860BDE8F081B8
:104030002DE9FF41064601253160244F05240097F4
:10404000CDE9015408462B467522D021FEF758FAD7
:10405000B8BB3878682834D14FF0000803AF8DF82A
:104060000C800097CDE9015401236B22D0213068E8
:10407000FEF774FB28BB07208DF80C000097CDE9F4
:10408000015401231922D0213068FEF767FBC0B923
:104090008DF80C800097CDE9015401231C22D0211A
:1040A0003068FEF75BFB60B98DF80C800097CDE9B6
:1040B000015401231B22D0213068FEF74FFB00285A
:1040C00000D0012004B0BDE8F081000028000020ED
:1040D0002DE9F04788B0044605220E2103A88DE89B
:1040E000070001233B22D0212068FEF709FA18B10E
:1040F000012008B0BDE8F087BDF80C0040BA00B25E
:10410000A080BDF80E1049BA09B2E1808846BDF81A
:10411000101049BA0FB22781BDF8121049BA0FFA30
:1041200081F9BDF8141049BA0EB22685BDF81610F3
:1041300049BA0DB26585BDF8181049BAA18502F0DB
:104140009DFE6FF00D0A514603F069F802F0E0FCA5
:10415000C4E90401404602F091FE514603F05FF8C5
:1041600002F0D6FCC4E90601384602F07BFB0022CF
:10417000244B02F01FFAC4E90801484602F07EFE13
:10418000214902F065FD214902F0EEFCA0643046B1
:1041900002F074FE1E4E314602F05AFD02F0B8FCE9
:1041A000C4E90C01284602F069FE314602F050FDD8
:1041B00002F0AEFC174DC4E90E01287C68B16868B6
:1041C000C1692868C06902F005FE09D1D5E902017C
:1041D00002F080FEB0F5000F02DB002001460CE08B
:1041E000B4F92C0002F04AFE314602F031FD0146DE
:1041F0000948FFF700FF02F08BFCC4E91001002022
:1042000077E700000029CC400000AA43B81E124204
:1042100000000343E40200202C0000202DE9F047B9
:1042200086B000253948009501950295039581696E
:1042300041F010018161816901F0100104918169EF
:1042400041F020018161816901F0200104918169BF
:1042500041F004018161816901F0040104918169E7
:1042600041F0080181618069294F00F008004FF496
:1042700040440490002221463846FEF772F8DFF8E9
:1042800094A0002240F2C3315046FEF76AF8DFF8EE
:104290008890002203214846FEF763F84FF47048E7
:1042A000012241464846FEF75CF8009401AA012429
:1042B000022682E8700069463846FDF75DFFC3209C
:1042C0008DE8710069465046FDF756FF032701AAA5
:1042D000009782E8700069464846FDF74DFF1125BA
:1042E000CDF800800397CDE9015469464846FDF7B3
:1042F00043FF3802CDE90005CDE902476946504643
:10430000FDF73AFF06B0BDE8F0870000001002405C
:104310000010014000080140000C014010B592B0AF
:1043200000240F941C2108A81094FBF7E2FF202121
:104330006846FBF7DEFF20481E4901604721C0E9BF
:1043400001144FF6FF71C0E903148021C0E9054153
:10435000FFF78DF808B172B6FEE70F940FA9164863
:104360001094FEF70FFE08B172B6FEE76020CDE9AB
:1043700008040A940C940D940C2208A90E480E947B
:10438000FFF70FF808B172B6FEE700944FF4005043
:10439000CDE90440029401940394694606480794C9
:1043A000FEF7C6FD08B172B6FEE70348FEF79EFFB2
:1043B00012B010BD002C01407C01002010B58AB065
:1043C000002407941C2168460894FBF792FF1648C6
:1043D0004FF0804101604721C0E901144FF6FF71A1
:1043E000C0E9031480218161FFF741F808B172B67A
:1043F000FEE7079407A90C480894FEF7C3FD08B12F
:1044000072B6FEE76020CDE90004029400226946FE
:1044100005480494FEF7C5FF08B172B6FEE70248EE
:10442000FEF764FF0AB010BDC401002010B586B0CD
:1044300000241748009401940294039404941349AF
:104440000594016040F2CF21C0E9011440F69F714C
:10445000C0E903148461FEF7C9FD08B172B6FEE736
:104460004FF48050009069460948FEF737FE08B1C6
:1044700072B6FEE7049404A905480594FEF782FD90
:10448000002801D072B6FEE706B010BD000400405F
:104490000C02002010B58AB0002407941C21684645
:1044A0000894FBF726FF1A48184901604721C0E924
:1044B00001144FF6FF71C0E903148461FEF7D7FFC2
:1044C00008B172B6FEE7079407A911480894FEF7F1
:1044D00059FD08B172B6FEE76020CDE900040294F0
:1044E000002269460A480494FEF75BFF08B172B6E1
:1044F000FEE7042269460648FEF753FF08B172B68C
:10450000FEE70348FEF7F2FE0AB010BD00080040C7
:1045100054020020FEE7FEE77047704718B50446D6
:1045200040F6C4100090207A4FF4C873B4220021E2
:1045300001F016FC616849B104290BD008290DD09F
:104540000C2902D121680968086418BD216809682E
:10455000486318BD21680968886318BD2168096827
:10456000C86318BDC0E90012002202720122427223
:10457000096844F61F62CA62054A044B117843F881
:104580002100491C117003C8FEF7CCBFA80500200C
:10459000100100200172FFF7C1BF10B5044600F002
:1045A0004FF82046BDE8104000F050B810B5044662
:1045B000818A00690122FDF7D4FE01202076D4E92A
:1045C0000001BDE81040FEF7FBBF10B50446D4E97A
:1045D0000001FEF7A7FFA18A00222069FDF7C1FEB6
:1045E0000020207610BD0000F0B40DF1100C9CE806
:1045F000F000016009684FF0000CC1F82CC00362A4
:10460000C0E90124858106618782012101764FF48A
:104610004861C182C0F81CC0084B614653F8212094
:10462000824209D032B1491CC9B20229F6D3F0BC8A
:10463000FFF7BCBF43F82100F0BC70471401002015
:10464000427E81898068FDF78CBE000010B504466B
:10465000C0692149884204DA2046BDE81040FFF7CE
:10466000A5BFE08A02F022FCE16902F033FC1B499D
:1046700002F0EEFA02F0E2FB1949884200D908463E
:10468000B1FBF0F0401E022801D3014600E00221F8
:1046900022681268D162616881B1042913D00829A7
:1046A00021684FEA5000096812D00864207E012872
:1046B00010D12046BDE81040FFF787BF21684008B1
:1046C00009684863F2E72168400809688863EDE7F4
:1046D000C863EBE710BD00000000A041000070427D
:1046E00040420F00C161FFF758BFFEF707B930B570
:1046F0008FB028216846FBF7FCFD14210AA8FBF7C0
:10470000F8FD01210804CDE90010002402940225DF
:104710000491CDE907504FF4E01009906846FEF788
:1047200061FA08B172B6FEE70F20CDE90A054FF431
:104730008060CDE90C4002210AA80E94FEF776F9BC
:10474000002801D072B6FEE70FB030BD7047000000
:104750000148FEF732BD00000C020020F0B50268EF
:10476000194B1A4C1A4D4FF08047984205D0B84269
:1047700003D0A04201D0A84203D122F070064A68BB
:104780003243984205D0B84203D0A04201D0A8429B
:1047900003D122F44074CA6822434C6922F080029B
:1047A000224302608A68C2620A688262984201D12A
:1047B00009690163012141610169C90703D00169E8
:1047C00021F001010161F0BD002C01400004004016
:1047D0000008004010B501F01F030121046A994050
:1047E0008C430462016A9A401143016210BD10B506
:1047F000846842EA032224F47F440A43224382600D
:1048000010BD826822F070020A4342F00701816005
:104810007047000030B5036A026A22F001020262AA
:104820004268846924F073050C682C4323F0020568
:104830008B682B430A4DA8420BD123F00805CB68A7
:1048400022F440722B434D6923F0040315438A6917
:104850002A434260846149684163036230BD0000BD
:10486000002C014030B5026A036A23F01003036292
:10487000436884690D6824F4E64444EA05248D689D
:1048800022F0200242EA05120B4DA8420ED1CD685B
:1048900022F0800242EA05124D6923F4406343EAA4
:1048A00085038D6922F0400243EA850343608461F9
:1048B00049688163026230BD002C014030B5036A53
:1048C000026A22F4807202624268C46923F40073AF
:1048D00024F073050C682C438D6843EA05230C4DC6
:1048E000A8420ED1CD6823F4006343EA05234D6945
:1048F00022F4405242EA05128D6923F4806342EAB1
:1049000005124260C4614968C163036230BD0000A2
:10491000002C014030B5046A026A22F4805202621F
:104920004268C3690D6823F4E64343EA05238D68B2
:1049300024F4005444EA0534064DA84204D14D69DC
:1049400022F4804242EA85124260C36149680164F0
:10495000046230BD002C014010B5036A046A24F0E3
:1049600001040462846924F0F00444EA021423F090
:104970000A020A438461026210BD10B5036A046A28
:1049800024F010040462846923F0A00324F470442A
:1049900044EA023243EA01118261016210BD10B59E
:1049A000406A0021C185C184FEF7DCFE10BD70B5F0
:1049B000446A2068406994F84110C0F3C010002593
:1049C000212904D118B1E584204600F062F820685E
:1049D000406994F84210C0F38010222904D118B124
:1049E000E585204600F02EF8606C40F01000606411
:1049F0002046FEF7B7FE70BD10B50146406A096853
:104A00000968890616D40021C1840168143151E86F
:104A1000002F22F0800241E80023002BF5D101682D
:104A20000C3151E8002F42F0400241E80023002BF6
:104A3000F5D110BDFFF7BEF810BD10B5406AFFF705
:104A4000BAF810BD01680C3151E8002F22F49072C1
:104A500041E80023002BF5D10168143151E8002F03
:104A600022F0010241E80023002BF5D1016B01295E
:104A700009D101680C3151E8002F22F0100241E801
:104A80000023002BF5D1202180F842100021016382
:104A9000704701680C3151E8002F22F0C00241E854
:104AA0000023002BF5D1202180F84110704708B574
:104AB00090F84210222901D0022008BD82684FF4EC
:104AC00080539A4201D1016921B1816A9A421BD077
:104AD0004AB10AE00268816A5268C2F308020A8099
:104AE000816A891C08E0026972B10268526802F0AA
:104AF0007F020A70816A491C8162C18D491E0904C6
:104B0000090CC18503D01BE002685268F1E7016817
:104B1000CA6822F02002CA600168CA6822F4807262
:104B2000CA6001684A6922F001024A61202180F8C6
:104B3000421000214163026B012A03D0FEF7E2FF1D
:104B4000002008BD016301680C3151E8002F22F0FC
:104B5000100241E80023002BF5D101680A68D20653
:104B600002D50A6849680091818DFEF7FAFDE7E7F2
:104B700070B5044600680169E26821F440511143B0
:104B800001612169A0680843616908432168CA6816
:104B900041F20C639A430243CA6020684169A269EA
:104BA00021F44071114341611E492068884202D1BD
:104BB000FDF7E2FF01E0FDF7CFFF00EBC00101EBE5
:104BC0000012606864218000B2FBF0F3B3FBF1F3E4
:104BD0006FF018067343B2FBF0F5B2FBF0F605EB8D
:104BE0008305322303EB0515B5FBF1F5B6FBF1F6B2
:104BF00005F0F00505EB0615B2FBF0F6B2FBF0F0A0
:104C0000B0FBF1F06FF01802504306EB800003EBAD
:104C10000010B0FBF1F0216800F00F00284488601C
:104C200070BD00000038014081628285C28500218C
:104C30004164222180F84210016921B10168CA68EB
:104C400042F48072CA6001684A6942F001024A6116
:104C50000068C16841F02001C16000207047000079
:104C60000148FEF781BD00009C020020FEE74900DC
:104C700050EAC12018BF04204A0D18BF40F00100BF
:104C800040F2FF72B2EB515F08BF40F00200012812
:104C900008BF052070470907090E002804DB00F152
:104CA000E02080F80014704700F00F0000F1E020D1
:104CB00080F8141D704730380A2801D2012070474F
:104CC0000020704738B504460179006804230A22A1
:104CD00000F01EFB002820D000208DF80000217974
:104CE0006B468422206800F04AFA002815D09DF80F
:104CF0000000842220F010038DF800302179206814
:104D000000F006FB002808D0217901230B2220683F
:104D100000F0FEFA002800D0012038BD38B5044666
:104D200000208DF8000021796B468922206800F070
:104D300026FA002844D09DF80000892240F00103A3
:104D40008DF800302179206800F0E2FA002837D091
:104D5000217900238822206800F0DAFA05462179BB
:104D600001238022206800F0D3FA05402179012335
:104D7000FF22206800F0CCFA0540002321791A4672
:104D8000206800F0C5FA054021790E4B9122206879
:104D900000F0F5F90540217901230022206800F098
:104DA000B7FA054021790023FF22206800F0B0FA0D
:104DB0000540217900238022206800F0A9FA2840CC
:104DC00038BD0000200000202DE9F04107004FF021
:104DD000FF3813D0002635463446FBF76BFA10F047
:104DE000FF020BD000206FF02F0319E0395C2D2952
:104DF00007D0A1F1300CBCF10A0F09D34046BDE841
:104E0000F08155EA0001F9D101266D1CEDB205E0F3
:104E100004EB840403EB440421440CB2401CC0B2F4
:104E20009042E3D3642C01DD7820E8E70EB16042C4
:104E300004B260B2E3E72DE9FE4300250F468DF88A
:104E40000450029599469046044601790068012372
:104E5000802200F05DFA064621790123FF222068B6
:104E600000F056FA0640002321791A46206800F027
:104E70004FFA064021790623FF22206800F048FA05
:104E80000640217901AB8322206800F078F90640C2
:104E90009DF80400217940F004038322206800F08B
:104EA00037FA064021790723FF22206800F030FA04
:104EB0000640217901238122206800F029FA06406A
:104EC000217901238022206800F022FA00EA0601FD
:104ED0000E007DD021796B239422206800F018FA0F
:104EE000304006007CD08DF80050217900238322C9
:104EF000206800F00DFA002872D021796B468322D9
:104F0000206800F03CF900286AD09DF800000028D5
:104F1000F3D0217901238322206800F0F9F90028D9
:104F20005ED0217902AB9022206800F0E3F80028DF
:104F300056D002980023C0F30620387002988122D0
:104F4000C0F3C03188F800102179206800F0E0F942
:104F500000EA060521790623FF22206800F0D8F92F
:104F60000540217901AB8322206800F008F9054053
:104F70009DF80400217900F0FB038322206800F0F3
:104F8000C7F9054021790123FF22206800F0C0F90C
:104F90000540217901230022206800F0B9F900EAD8
:104FA000050621790023FF22206800F0B1F900EA0C
:104FB0000605217900238022206800F0A9F900EA83
:104FC00005060620009021794B46B022206800E0BB
:104FD00006E000F01EF8002800D03046BDE8FE8351
:104FE0000020FBE708B500200090401C0090052839
:104FF000FBD308BD10B5044602982160A280A360CF
:10500000A081204600F024F92046BDE8104000F0C1
:1050100015B92DE9F0411E4617460C468046069DFF
:1050200000F029F96006010E404600F092F90028D0
:1050300028D03946404600F08CF9002822D040465E
:1050400000F019F9012000EB4400C1B2404600F025
:1050500080F9002816D000246F1E06E0012140468A
:1050600000F0BAF83055641CE4B2BC42F6DB002113
:10507000404600F0B1F8711901F8010C404600F00B
:105080000DF90120BDE8F0812DE9F0411E461446DE
:105090000D46074600F0EFF86806010E384600F0AE
:1050A00058F9002824D02146384600F052F900284B
:1050B0001ED0384600F0DFF8012000EB4500C1B2F9
:1050C000384600F046F9002812D00121384600F099
:1050D00083F860F307040021384600F07DF860F3A0
:1050E0000F24384600F0DAF8A0B240BA3080012030
:1050F000BDE8F0812DE9F0411E4614460D460746F5
:1051000000F0B9F86806010E384600F022F90028D0
:1051100033D02146384600F01CF900282DD03846FF
:1051200000F0A9F8012000EB4500C1B2384600F0BC
:1051300010F9002821D00121384600F04DF860F325
:1051400007040121384600F047F860F30F240121DD
:10515000384600F041F860F317440021384600F06B
:105160003BF860F31F640546384600F097F820BA14
:1051700020F0FF00284330600120BDE8F0812DE9D8
:10518000F0411D4616460C46074600F074F86006CE
:10519000010E384600F0DDF800281AD031463846B6
:1051A00000F0D7F8002814D0384600F064F8012049
:1051B00000EB4400C1B2384600F0CBF8002808D01C
:1051C0000021384600F008F82870384600F066F8EC
:1051D0000120BDE8F08100002DE9F0410F46804636
:1051E000002500F035F807245FF00106FFF7FAFE0E
:1051F000404600F023F8FFF7F5FE404600F032F895
:1052000018B106FA04F02843C5B2404600F01BF876
:10521000641EEBD5404617B100F01FF801E000F026
:1052200017F8FFF7DFFE404600F008F8FFF7DAFE58
:10523000404600F008F82846BDE8F0818188006803
:105240000122FDF78EB8818800680022FDF789B839
:10525000818980680122FDF784B8818980680022F5
:10526000FDF77FB810B581898068FDF775F80128D2
:1052700000D0002010BD10B50446FFF7E9FF20461E
:10528000FFF7DCFFFFF7AEFE2046FFF7E6FFFFF774
:10529000A9FE2046BDE81040FFF7D5BF10B5044673
:1052A000FFF7DBFFFFF79EFE2046FFF7C7FFFFF784
:1052B00099FE2046FFF7CCFFBDE81040FFF792BEF5
:1052C0002DE9F0411D4617460C468046069EFFF725
:1052D000D2FF6006010E404600F03BF8002815D0D2
:1052E0003946404600F035F800280FD0002407E08A
:1052F000295D404600F02DF8002807D0641CE4B278
:10530000B442F5D34046FFF7C9FF0120BDE8F08164
:105310002DE9F0411D4616460C460746FFF7ABFF48
:105320006006010E384600F014F800280FD0314610
:10533000384600F00EF8002809D02946384600F01B
:1053400008F8002803D03846FFF7A8FF0120BDE881
:10535000F0812DE9F04107240E460746012505FAA4
:1053600004F03042384602D0FFF772FF01E0FFF749
:1053700074FFFFF737FE3846FFF760FFFFF732FE96
:105380003846FFF760FF641EE9D53846FFF760FF37
:10539000FFF728FE3846FFF751FFFFF723FE384698
:1053A000FFF760FF80F001043846FFF74CFF20460E
:1053B000BDE8F08138B50446818901228068FCF798
:1053C000D0FF0120FCF7C6FE002120688DF80010F8
:1053D0006B46C0222921FFF7D2FE18B19DF80000CC
:1053E000EE2801D0002038BD21798A2201F07F0308
:1053F00029212068FFF78CFF0028F4D0012038BD58
:1054000010B50446FFF78AFC002820D0204600F0A3
:1054100081FDE8B1204600F01DF8C8B12046FFF735
:1054200051FCA8B1E821204600F06EFD80B10021BA
:10543000204600F0BDFC58B10121204600F0B8FC28
:1054400030B1E821204600F05FFD08B1012010BD19
:10545000002010BD70B50446017900680123FF22C9
:10546000FFF756FF0546002321791A462068FFF70B
:105470004FFF00EA050621790023FF222068FFF78D
:1054800047FF00EA06052179002309222068FFF77B
:105490003FFF05402179002310222068FFF738FFE5
:1054A00000EA05062179002311222068FFF730FF6A
:1054B00000EA06052179012324222068FFF728FF4E
:1054C00005402179FF2325222068FFF721FF0540B1
:1054D0002179002375222068FFF71AFF0540217902
:1054E0000123FF222068FFF713FF00EA0506217958
:1054F0002C234E222068FFF70BFF00EA06052179D6
:10550000002348222068FFF703FF0540217920236C
:1055100030222068FFF7FCFE054021790023FF229E
:105520002068FFF7F5FE0540217909233022206825
:10553000FFF7EEFE05402179002354222068FFF793
:10554000E7FE05402179042331222068FFF7E0FEC1
:1055500005402179032332222068FFF7D9FE054058
:105560002179832340222068FFF7D2FE054021796C
:10557000252346222068FFF7CBFE05402179002332
:1055800060222068FFF7C4FE00EA050621790023A7
:1055900027222068FFF7BCFE00EA060521790623D2
:1055A00050222068FFF7B4FE00EA050621790023A7
:1055B00051222068FFF7ACFE00EA06052179962308
:1055C00052222068FFF7A4FE0540217908235622C5
:1055D0002068FFF79DFE00EA050621793023572257
:1055E0002068FFF795FE00EA060521790023612275
:1055F0002068FFF78DFE0540217900236222206894
:10560000FFF786FE05402179002364222068FFF71A
:105610007FFE05402179002365222068FFF778FE90
:1056200005402179A02366222068FFF771FE05401E
:1056300021790123FF222068FFF76AFE05402179C6
:10564000322322222068FFF763FE054021791423CC
:1056500047222068FFF75CFE05402179FF2349229D
:105660002068FFF755FE0540217900234A22206873
:10567000FFF74EFE054021790023FF222068FFF747
:1056800047FE00EA050621790A237A222068FFF7FF
:105690003FFE00EA0605217900237B222068FFF700
:1056A00037FE00EA05062179212378222068FFF7DA
:1056B0002FFE00EA060521790123FF222068FFF76B
:1056C00027FE00EA05062179342323222068FFF70C
:1056D0001FFE00EA06052179002342222068FFF719
:1056E00017FE05402179FF2344222068FFF710FEB2
:1056F00000EA05062179262345222068FFF708FEE7
:1057000000EA06052179052346222068FFF700FEFE
:105710000540402321791A462068FFF7F9FD05402E
:10572000217906230E222068FFF7F2FD054021793A
:105730001A2320222068FFF7EBFD05402179402342
:1057400043222068FFF7E4FD054021790023FF2272
:105750002068FFF7DDFD054021790323342220680E
:10576000FFF7D6FD05402179442335222068FFF755
:10577000CFFD054021790123FF222068FFF7C8FDF6
:1057800005402179042331222068FFF7C1FD05403F
:10579000217909234B222068FFF7BAFD05402179C2
:1057A00005234C222068FFF7B3FD0540217904232F
:1057B0004D222068FFF7ACFD054021790023FF2230
:1057C0002068FFF7A5FD05402179002344222068C9
:1057D000FFF79EFD05402179202345222068FFF731
:1057E00097FD05402179082347222068FFF790FDA7
:1057F00005402179282348222068FFF789FD0540CC
:105800002179002367222068FFF782FD0540217976
:10581000042370222068FFF77BFD054021790123D6
:1058200071222068FFF774FD05402179FE23722262
:105830002068FFF76DFD054021790023762220685E
:10584000FFF766FD05402179002377222068FFF7E6
:105850005FFD054021790123FF222068FFF758FDF5
:105860000540217901230D222068FFF751FD0540F5
:1058700021790023FF222068FFF74AFD05402179A6
:10588000012380222068FFF743FD05402179F8239A
:1058900001222068FFF73CFD00EA0506217901237B
:1058A000FF222068FFF734FD00EA06052179012375
:1058B0008E222068FFF72CFD05402179012300226C
:1058C0002068FFF725FD054021790023FF2220688D
:1058D000FFF71EFD05402179002380222068FFF795
:1058E00017FD284070BD00001FB5FDF70FF8FEF74B
:1058F000FEFEFEF793FCB248416941F001014161AF
:105900004069002200F00100009003211120FDF702
:105910005BF81120FDF74AF8AB48AA490025016061
:10592000AA49C0E901154FF48047C0E90357456112
:105930008561C5610562FCF71FFD08B172B6FEE71F
:10594000FEF73CFDFEF772FDFEF7A4FDA148A0495D
:1059500001604FF4E131C0E901150C21C560C0E9D7
:1059600004518561C561FEF735F808B172B6FEE7EE
:10597000FEF7D4FC0126984C4FF47A7806E0A67026
:1059800096A000F04BFB4046FCF7E4FB8E4901F586
:105990003C70FEF74DFB0028F1D1A5709448FEF74E
:1059A00097FB4FF0020930B184F8029091A000F00B
:1059B00035FB72B6FEE7DFF854B28D484FF4004A6B
:1059C0005B464FF480421946B838CDF800A0FFF787
:1059D00011FB4FF400504210009085485B46194679
:1059E000A838FFF707FB4FF40070894F4210009072
:1059F0007F4839463B469838FFF7FCFA6FF0310193
:105A0000CDE900517A49A846B83902235A4601F136
:105A1000840000F0D1FBE8B36FF01D007449CDE9BC
:105A20000090B8394D4640233A4601F1300000F06D
:105A3000C3FB032178B3CDE900186D498023B83941
:105A40003A4601F14C0000F0B7FB90B36FF0130041
:105A50006749CDE90060B83901235A4601F1680071
:105A600000F0AAFB00282CD05A490022483901F541
:105A7000D670FEF777FD57490422483901F5DC70EE
:105A8000FEF770FD5A481E210C38FEF783FD4FF0DB
:105A9000070822E000E006E00620A0705DA000F00C
:105AA000BDFA72B6FEE7A17063A000F0B7FA72B655
:105AB000FEE7FFE70420A07068A000F0AFFA72B61E
:105AC000FEE70520A0706EA000F0A8FA72B6FEE70F
:105AD00084F8028073A000F0A1FA45493622A83963
